:100AAA00543A0054483A00544C3A00574F520020E6
:030ABA00202000F9
:10046D00120ACC7FE87E03120A81E4FF1208938FF3
:10047D000F7F011208938F0AD3E50F648094FD500E
:10048D0016C3E50A64809449400DD3E50A6480F8EB
:10049D00E50F6480985006750F14750A0F120A96B1
:1004AD007BFF7A0A79AA7D017F0112093C7BFF7AD5
:1004BD000A79AD7D017F0212093C7BFF7A0A79B181
:1004CD007D097F0212093CE50FFB3395E0FA751BA0
:1004DD00037D047F0212077CE50AFB3395E0FA7574
:1004ED001B037D0C7F0212077C120A28120B188F3A
:1004FD0010120ACC1208C38F0E8E0D8D0C8C0BE4CE
:10050D00FFFEFDFCAB0EAA0DA90CA80B1201B450F9
:10051D001E7B2D7D037F01120AFBAF0EAE0DAD0CC0
:10052D00AC0B12022D8F168E158D148C1380157B2E
:10053D002B7D037F01120AFB850E16850D15850C8B
:10054D0014850B13AF16AE15AD14AC1312027CABA4
:10055D0007AA06751B037D047F011209B97B2E7D49
:10056D00077F01120AFBE4FFFE7DC87C42AB16AA91
:10057D0015A914A81312000E12027CE47B64FAF97B
:10058D00F81203CD751B027D087F011209B9E51024
:10059D00700302063AB4010E050FD3E50F64809483
:1005AD00FD4003750F7DE510B40211150FD3E50A5B
:1005BD006480F8E50F6480985002050FE510B403D0
:1005CD0011050AC3E50F6480F8E50A6480984002BE
:1005DD00150AE510B4040E150AC3E50A64809449A2
:1005ED005003750AC9E50FFB3395E0FA751B037DC2
:1005FD00047F0212077CE50AFB3395E0FA751B03B5
:10060D007D0C7F0212077CE50FFD3395E0FCE4FFC6
:10061D001209187F057E00120A81E50AFD3395E067
:10062D00FC7F011209187F057E00120A81AC0FECC8
:10063D00120248AB0EAA0DA90CA80B1201B4600250
:10064D005013AC0AEC120248AB0EAA0DA90CA80B64
:10065D001201B450267BFF7A0A79B57D0D7F011208
:10066D00093CE4F511F512B2A50512E5127002056B
:10067D0011B4F4F3E511B401EE800D7BFF7A0A7924
:10068D00B97D0D7F0112093CAC0FEC120248AB0E87
:10069D00AA0DA90CA80B1201B460025013AC0AEC00
:1006AD00120248AB0EAA0DA90CA80B1201B4501DD5
:1006BD007F0A7E00120A8175A0FE7F0A7E00120A53
:1006CD008175A0FF7F0A7E00120A81800D7BFF7A63
:1006DD000A79B97D0D7F0112093CAC0FEC1202486D
:1006ED00AB0EAA0DA90CA80B1201B460025013ACED
:1006FD000AEC120248AB0EAA0DA90CA80B1201B4FC
:10070D005005B2900204F97BFF7A0A79B97D0D7F0D
:07071D000112093C0204F97E
:03000B00020724C5
:10072400C0E0C0F0C083C082C0D075D000C000C09B
:0D07340001C002C003C004C005C006C0071C
:10074100758A18758CFC0509E50970020508C394C2
:1007510014E508940040097508007509001207EFB7
:10076100D007D006D005D004D003D002D001D000EC
:0B077100D0D0D082D083D0F0D0E03296
:100A8100EF1FAC0670011E4C600A7D027CEFDCFE9C
:040A9100DDFC80EC1C
:010A9500223E
:060ABD00C2A58F80D2A744
:080AC3007F027EEFDEFEDFFC86
:010ACB002208
:0A0AF100C2A6120ABDC2A7020AC382
:10095F00CFCDCFCECCCE12033C7C007D0A12033C10
:04096F00ED2430FF44
:0A097300D2A6120ABDC2A7020AC3F1
:100A3F00AE07BE0104ED148006BE0209ED243F444B
:060A4F0080FF120AF122F3
:100A96007F38120AF17F0C120AF17F06120AF17FE3
:040AA60001020AF14E
:0A0AFB00AC03120A3FAF04020973B6
:06093C008B178A188919CF
:10094200120A3FE4FDAB17AA18A9198D827583001C
:0C0952001202FDFF60061209730D80E91F
:01095E002276
:0C0860007F0AEA24FFFDE434FFFC7E0068
:08086C008E1E8F1F8C208D21D0
:100874007F017E00E4FBEBC39521E5206480F874DE
:0E0884008098500AAC1EAD1F12032A0B80E8AC
:010892002243
:0409B9008A198B1AF2
:1009BD00120A3FAA1BEAD39400400D120860AC192D
:0809CD00AD1A12095F1A80ED5A
:0109D50022FF
:10077C00120A3FC3EA64809480400B7F2B120973EA
:10078C008A1C8B1D800E7F2D120973C3E49BF51DF3
:10079C00E49AF51CAA1BEAD39400400D120860AC35
:0907AC001CAD1D12095F1A80ED5D
:0107B5002221
:0407B6008A248B25E1
:1007BA00120A3FAA26EAD3940040297F101208623F
:1007CA00AC24AD25CFCDCFCECCCE12033CEF540F07
:1007DA00FEC3940AEE5004243080022437FF120923
:0407EA00731A80D12D
:0107EE0022E8
:040828008A298B2A64
:10082C00120A3FAA2BEAD394004028EA24FFFDE4E5
:10083C0034FFFC7F027E0012086CAC29AD2ACFCDB0
:10084C00CFCECCCE12033CEF54012430FF120973EF
:03085C001A80D22D
:01085F002276
:100918008F178C188D19120B0F7FA01208EF120A6F
:10092800D9AF171208EF120AD9AF191208EF120A35
:04093800D9020003DD
:020893008F17BD
:10089500120B0F7FA01208EF120AD9AF171208EF3B
:1008A500120AD9120B0F7FA11208EF120AD91209E9
:0D08B5007D8F187F01120B05120003AF1894
:0108C2002213
:090B0F00D2A0D2A1C2A0C2A12211
:07000300C2A0D2A1D2A0228D
:0208EF00AD0753
:1008F100E4FB74807E00A803088006CEA2E713CE35
:1009010013D8F8FFEDF582EF558224FF92A0D2A112
:06091100C2A10BBB08DCD3
:0109170022BD
:10097D00E4FFD2A0FED2A130A00D7480A80608809D
:0D098D0002C313D8FC4207C2A10EBE08E849
:01099A00223A
:0A0B0500EF24FF92A0D2A1C2A122AA
:0B0AD900D2A0D2A1A2A0E433FFC2A172
:010AE40022EF
:0D0ACC0012099B7FCC120A0F7F44020A0F13
:1008C30012099B7FCC120A0F7FBE120A0F1209D6A0
:1008D3008F171209D6EFFEE517FFFDAC06EC1202E7
:0B08E30043E4FBFA7980784112011712
:0108EE0022E7
:10099B00C2AFD2B7C2B77FF7DFFED2B77F20DFFE81
:0D09AB00A2B7E433FE7FF7DFFED2AFAF0648
:0109B800221C
:100A5500C2AFC2B77E04DEFEEF24FF92B77E18DE7A
:050A6500FED2B7D2AF84
:010A6A002269
:1009F300C2AFC2B77F02DFFED2B77F02DFFEA2B76C
:0B0A0300E433FE7F18DFFED2AFAF0629
:010A0E0022C5
:020A0F00AD0731
:100A1100E4FC7401A804088002C333D8FC5DFF1212
:060A21000A550CBC08ECB4
:010A270022AC
:1009D600E4FDFC1209F3EF600D7401A8040880021F
:0C09E600C333D8FC42050CBC08E9AF0587
:0109F20022E2
:050B1800E4AF2EF52EF4
:010B1D0022B5
:100A6B00E4FF20B1010F20B0027F0220B2027F030E
:050A7B0020B3027F041E
:010A80002253
:1007EF00852C2D120A6B8F2CE52DB40107E52C708B
:1007FF0003752E01E52DB40207E52C7003752E024B
:10080F00E52DB40307E52C7003752E03E52DB40415
:08081F0007E52C7003752E049F
:0108270022AE
:100A28005389F0438901758A18758CFCC28DD28C64
:070A3800D2A9D2AFC2B9221E
:10000E00EC4D6011E8497017ED33EC3304600DE4EC
:10001E00FCFFFEFD22E933E8330470F80202E81219
:10002E0002B358046009E4CC24815006285009021A
:10003E0002F22840030202EFC0E0EB4A7044B9809E
:10004E0006D0E0FB0202DEEF4E701CBD8008EBFF17
:10005E00EAFEE9FD80EBE98DF0A4FEE5F00200F783
:10006E00E9CDF9EAFEEBFFEF89F0A4FCE5F0CE89CD
:10007E00F0A42EFFE435F0CD89F0A42DFEE435F08A
:10008E008067EF4E7005BD80D780C3EF8BF0A4ACB8
:10009E00F0EE8BF0A42CFCE435F0F8EF8AF0A42CF3
:1000AE00E5F038FCE433CB8DF0A42CFCE5F03BF806
:1000BE00EE8AF0A42CFCE5F038F8E433CF89F0A4F6
:1000CE002CFCE5F038CF3400CE89F0A42FFFE5F0FC
:1000DE003EFEE433C98DF0A42EFEE5F039CD8AF054
:1000EE00A42FFFE5F03EFEE43DFD33D0E0FB5007CC
:1000FE000BBB000F0202F2EC2CFCEF33FFEE33FED3
:06010E00ED33FD0202CA00
:100114000202F2EC5D046005E8590470030202E88F
:100124001202B3580460F6EC4860F2EC7004FDFE71
:10013400FF22C860DB2481C85009C39860025006BE
:100144000202EF9850CAF582E9294B4A7005AB8246
:100154000202DE75F0007C1A7880C3EF9BEE9AED04
:1001640099400DC3EF9BFFEE9AFEED99FDE842F036
:10017400DC23ACF0D0E0FFD0E0FED0E0FDAB822089
:10018400E7101BEB60BAEC2CFCEF33FFEE33FEED13
:1001940033FD0202CAE803F830E705C0F075F00049
:1001A400EF2FFFEE33FEED33FD40B830E7C280AAF7
:1001B40074F8CC6480CCC86480C8F58204604FC3F2
:1001C400EB9FF5F0EA9E42F0E99D42F0E89C45F091
:1001D400603C501DE5825FFFE582D313CB5BCBF41B
:1001E4002B5582FB50280ABA002409B90020088044
:1001F4001DE5825BFBE582D313CF5FCFF4C3132FDE
:100204005582FF50090EBE00050DBD00010CC3EB65
:100214009FF5F0EA9E42F0E99D42F0E89C45F060CB
:0902240007CC4820E701B3EC22ED
:10022D00ED33EC33600A047003BD8004ECB2E7FCDF
:01023D00229E
:10023E0075F020800E75F010800575F0087D007E3B
:10024E00007F003392D530D50312045FEC3340109B
:10025E00EF33FFEE33FEED33FDEC33FCD5F0ED2244
:0E026E00E5F0247EA2D513CC92E7CDCEFF2280
:10027C00EDD2E7CD33EC3392D524814006E4FFFE7A
:10028C00FDFC22FCE4CFCECDCC24E0501174FF80D9
:10029C00EDC3CC13CCCD13CDCE13CECF13CF047076
:0702AC00F030D5DE02045F13
:1002B300E9D2E7C933E833F892D5EDD2E7CD33EC91
:0702C30033FC5002B2D5220A
:1002CA00EC30E7100FBF000C0EBE00080DBD000495
:1002DA000BEB6014A2D5EB13FCED92E7FD2274FF41
:1002EA00FCFDFEFF22E480F8A2D574FF13FC7D809A
:0302FA00E480EFAE
:03000000020AE50C
:0C0AE500787FE4F6D8FD75812E02046DC8
:1002FD00BB010CE58229F582E5833AF583E02250B6
:10030D0006E92582F8E622BBFE06E92582F8E222FF
:0D031D00E58229F582E5833AF583E4932219
:10032A00EF8DF0A4A8F0CF8CF0A428CE8DF0A42EE7
:02033A00FE22A1
:10033C00BC000BBE0029EF8DF084FFADF022E4CCA5
:10034C00F875F008EF2FFFEE33FEEC33FCEE9DEC6E
:10035C00984005FCEE9DFE0FD5F0E9E4CEFD22EDB4
:10036C00F8F5F0EE8420D21CFEADF075F008EF2FFE
:10037C00FFED33FD4007985006D5F0F222C398FDEF
:05038C000FD5F0EA228C
:1003910075F008758200EF2FFFEE33FECD33CDCC23
:1003A10033CCC58233C5829BED9AEC99E5829840A6
:1003B1000CF582EE9BFEED9AFDEC99FC0FD5F0D683
:1003C100E4CEFBE4CDFAE4CCF9A88222B800C1B9AD
:1003D1000059BA002DEC8BF084CFCECDFCE5F0CBEB
:1003E100F97818EF2FFFEE33FEED33FDEC33FCEB24
:1003F10033FB10D703994004EB99FB0FD8E5E4F9DF
:10040100FA227818EF2FFFEE33FEED33FDEC33FCCB
:10041100C933C910D7059BE99A4007EC9BFCE99ABF
:10042100F90FD8E0E4C9FAE4CCFB2275F010EF2F04
:10043100FFEE33FEED33FDCC33CCC833C810D70704
:100441009BEC9AE899400AED9BFDEC9AFCE899F83F
:0E0451000FD5F0DAE4CDFBE4CCFAE4C8F922D2
:0E045F00C3E49FFFE49EFEE49DFDE49CFC22AE
:00000001FF
